:020000040800F2
:10000000E8120020D10300080D3500080F35000864
:1000100013350008173500081B35000800000000E4
:100020000000000000000000000000001F35000874
:1000300021350008000000002335000825350008A0
:10004000EB030008EB030008EB030008EB030008D8
:10005000EB030008EB030008EB030008EB030008C8
:10006000EB030008EB030008EB030008EB030008B8
:10007000EB030008EB030008EB030008EB030008A8
:10008000EB030008EB030008EB030008EB03000898
:10009000EB030008EB030008EB030008EB03000888
:1000A000EB030008EB030008EB030008EB03000878
:1000B000EB030008EB030008EB030008EB03000868
:1000C000EB030008EB030008EB030008EB03000858
:1000D000EB03000841350008EB030008EB030008C0
:1000E000EB030008EB030008EB03000800F002F844
:1000F00000F070F80AA090E8000C82448344AAF152
:100100000107DA4501D100F065F8AFF2090EBAE84F
:100110000F0013F0010F18BFFB1A43F0010318473B
:1001200078770000987700000A444FF0000C10F830
:10013000013B13F0070408BF10F8014B1D1108BF65
:1001400010F8015B641E05D010F8016B641E01F805
:10015000016BF9D113F0080F1EBF10F8014BAD1C55
:100160000C1B09D16D1E58BF01F801CBFAD505E073
:1001700014F8016B01F8016B6D1EF9D59142D6D3CD
:10018000704700000023002400250026103A28BFF5
:1001900078C1FBD8520728BF30C148BF0B607047F9
:1001A000752906F00782782906F04082632906F057
:1001B0009A83732906F09F83002070471FB59DE83E
:1001C000030006F0FBFD06F0C9FB1FBD10B506F0ED
:1001D0002EFC10BD06F091FC1146FFF7EFFF03F077
:1001E00045F906F095FD03B4FFF7F0FF03BC06F0F8
:1001F00077FF00000CB50020019000906B4800686C
:1002000040F480306949086000BF6848006800F425
:10021000003000900198401C0190009818B9019896
:10022000B0F5A06FF1D16148006810F4003F02D032
:100230000120009001E0002000900098012842D1A8
:100240005B48006840F010005949086008460068A3
:1002500020F0030008600846006840F002000860D3
:10026000524840685149486008464068486008461E
:10027000406840F4806048600846406820F47C1084
:1002800048600846406840F4E81048600846006846
:1002900040F08070086000BF4448006810F0007FA4
:1002A000FAD04248406820F00300404948600846C0
:1002B000406840F00200486000BF3C48406800F0E1
:1002C0000C000828F9D10CBD10B5FFF793FF10BD45
:1002D00010B53648006840F001003449086008460F
:1002E000406834490840314948600846006832494E
:1002F00008402E4908600846006820F48020086005
:100300000846406820F4FE0048604FF41F008860F3
:10031000FFF7DAFF4FF000602849086010BD10B504
:10032000002100200022214B5B6803F00C0121B169
:10033000042906D0082928D107E0214B214C23604D
:1003400027E01F4B1F4C236023E0184B5B6803F42E
:100350007010164B5B6803F48032022303EB90406D
:1003600022B9194B4343174C23600DE00F4B5B68D8
:1003700013F4003F04D0144B4343124C236003E0BA
:100380000F4B43430F4C236003E00D4B0D4C236098
:1003900000BF00BF054B5B68C3F303130B4CE15C6C
:1003A000084B1B68CB40074C236010BD0010024077
:1003B000002002400000FFF8FFFFF6FE08ED00E01D
:1003C00000127A000000002000093D000400002017
:1003D0000948804709480047FEE7FEE7FEE7FEE7D9
:1003E000FEE7FEE7FEE7FEE7FEE7FEE70448054915
:1003F000054A064B70470000D1020008ED000008D6
:10040000E80C0020E8120020E80E0020E80E002092
:10041000DD48006840F00100DB490860084640689C
:10042000DA490840D849486008460068D849084079
:10043000D54908600846006820F480200860084616
:10044000406820F4FE0048604FF41F008860704749
:10045000CD49096821F48031CB4A11601146096801
:1004600021F480211160B0F5803F03D0B0F5802FDA
:100470000ED106E0C449096841F48031C24A1160D6
:1004800007E0C149096841F4A021BF4A116000E0BA
:1004900000BF00BF704710B50146002200230020B6
:1004A0004A11012A02D1B84C236806E0022A02D17F
:1004B000B54C236A01E0B44C636A01F01F020124C9
:1004C00094401C4201D0012000E0002010BD38B54E
:1004D000002000900024002500BF3120FFF7DBFF43
:1004E00005460098401C00900098B0F5A06F01D020
:1004F000002DF2D03120FFF7CEFF08B1012400E03B
:100500000024204638BD014600209F4A106820F094
:10051000F80040EAC100106070479E4908607047CB
:1005200002460020984B586820F47C1042EA0103F0
:100530001843954B586070479649086670470146C6
:100540000020914A506820F0030008435060704733
:100550008D48406800F00C007047014600208A4A30
:10056000506820F0F00008435060704701460020BA
:10057000854A506820F4E0600843506070470146A7
:100580000020814A506820F4605040EAC100506069
:10059000704729B17C4A527A02437B4B5A7204E07D
:1005A000794A527A8243784B5A7270477A49086086
:1005B000704701460020744A506820F440400843C8
:1005C000506070470021754A11706F4A82F8201000
:1005D000012802D0042808D103E001216F4A1170DC
:1005E00004E005216D4A117000E000BF00BF7047B4
:1005F0006B49086070476449096A0143624A1162A5
:100600007047674944390860704730B500210022BF
:10061000002400235C4D6D6805F00C0121B1042914
:1006200005D0082923D105E05E4D056022E05D4D2F
:1006300005601FE0544D6D6805F47012524D6D68F1
:1006400005F48034022505EB92421CB9564D554302
:1006500005600BE04C4D6D6815F4003F03D0524D22
:100660005543056002E04F4D5543056002E04D4D96
:10067000056000BF00BF444D6D6805F0F001090939
:100680004A4D6B5C0568DD4045603F4D6D6805F483
:10069000E061090A454D6B5C4568DD4085603A4D77
:1006A0006D6805F46051C90A404D6B5C4568DD40DA
:1006B000C560354D6D6805F44041890B3C4D6B5C60
:1006C000C568B5FBF3F5056130BD29B12E4A526905
:1006D00002432D4B5A6104E02B4A526982432A4B54
:1006E0005A61704729B1284A92690243264B9A61A0
:1006F00004E0254A92698243234B9A61704729B1ED
:10070000214AD2690243204BDA6104E01E4AD269D1
:1007100082431D4BDA61704729B11B4AD2680243FC
:10072000194BDA6004E0184AD2688243164BDA604B
:10073000704729B1144A12690243134B1A6104E04D
:10074000114A12698243104B1A61704714494039AB
:10075000086070470F49C86470470B49C8717047FB
:100760000948406A40F08070074948627047014676
:100770000020054A92680A4201D0012000E00020D2
:100780007047014988727047001002400000FFF86E
:10079000FFFFF6FE00004242D80042422010024015
:1007A0008004424200127A0000093D00140000203B
:1007B0002400002031490143314A1160704770B56F
:1007C000002100230F22C4780CB32D4C246804F4BC
:1007D000E064C4F5E064210AC1F10403CA4044782E
:1007E00004FA03F18478144021430901254C06786A
:1007F000A155047804F01F050124AC4005786D1163
:100800004FF0E02606EB8505C5F8004109E00478C5
:1008100004F01F050124AC401B4D0678761145F805
:10082000264070BD194A0A400243154B1B1F1A602F
:10083000704739B1124A121D12680243104B1B1D3A
:100840001A6006E00E4A121D126882430C4B1B1DF3
:100850001A607047042808D14FF0E021096941F07F
:1008600004014FF0E022116107E04FF0E021096937
:1008700021F004014FF0E022116170470000FA05F9
:100880000CED00E000E400E080E100E080FFFF1FED
:1008900010B50446FA48844208D101214015FFF7FB
:1008A0003BFF00216015FFF737FF17E0F548844252
:1008B00008D101210015FFF72FFF00212015FFF7B8
:1008C0002BFF0BE0F048844208D10121C803FFF759
:1008D00023FF00214FF40040FFF71EFF10BD30B58D
:1008E0000246002000235068E84C20400D790C6837
:1008F00044EA0524204350609068E54C2040D1E94B
:1009000002542C434D7944EA450420439060D06A58
:1009100020F470000C7C641EE4B2234340EA0350D0
:10092000D06230BD00210160017141718160C16000
:1009300001210174704721B1826842F00102826096
:1009400003E0826822F001028260704721B1826870
:1009500042F48072826003E0826822F480728260D6
:10096000704710B50023CBB21AB144681C434460F1
:1009700002E044689C43446010BD816841F0080176
:1009800081607047014600208A6812F0080F01D08C
:10099000012000E000207047816841F0040181607F
:1009A0007047014600208A6812F0040F01D0012030
:1009B00000E00020704721B1826842F4A00282600A
:1009C00003E0826822F4A0028260704701460020A2
:1009D0008A6812F4800F01D0012000E000207047E7
:1009E00010B50A4600210023416821F46041531EDE
:1009F00041EA4331416010BD21B1426842F40062D6
:100A0000426003E0426822F4006242607047F0B541
:100A100004460D4600200021092D11DDE068A5F1F6
:100A20000A0606EB4607072606FA07F18843A5F1F2
:100A30000A0606EB460603FA06F10843E0600CE0FE
:100A4000206905EB4507072606FA07F1884305EB01
:100A5000450603FA06F108432061072A0FDA606BA6
:100A6000561E06EB86071F2606FA07F18843561E18
:100A700006EB860605FA06F10843606322E00D2ABC
:100A80000FDA206BD61F06EB86071F2606FA07F142
:100A90008843D61F06EB860605FA06F10843206355
:100AA00010E0E06AA2F10D0606EB86071F2606FAA3
:100AB00007F18843A2F10D0606EB860605FA06F15A
:100AC0000843E062F0BD21B1826842F48012826086
:100AD00003E0826822F48012826070470146C86C8D
:100AE00080B2704766484C300068704721B1426858
:100AF00042F48062426003E0426822F48062426015
:100B0000704721B1426842F48052426003E042687B
:100B100022F48052426070470A460021816821F425
:100B2000E04111438160704721B1826842F4004284
:100B3000826003E0826822F400428260704721B143
:100B4000826842F40212826003E0826822F4021298
:100B500082607047014600208A6812F4001F01D0AD
:100B6000012000E000207047F0B504461546002043
:100B700000220026092911DDE068A1F10A0707EB30
:100B8000470C072707FA0CF29043A1F10A0707EB7D
:100B9000470703FA07F21043E0600CE0206901EB1D
:100BA000410C072707FA0CF2904301EB410703FAC7
:100BB00007F210432061A06BC0F30156EF1C06F151
:100BC000010CA7EB0C0707EB870C1F2707FA0CF2A9
:100BD0009043EF1C06F1010CA7EB0C0707EB87070E
:100BE00001FA07F21043A063F0BD10B50A460021D8
:100BF0000023816B21F44011531E41EA03518163AC
:100C000010BD08B5002300930090009B0B44009397
:100C1000009B1A6008BD08B50246002000900092B3
:100C200001F12800009B184400900098006880B2F1
:100C300008BD0A4600214168164B19401143416026
:100C400070474162826270470A460021416821F084
:100C50001F0111434160704740B1094908310968DB
:100C600041F40001064A0832116007E004490831E6
:100C7000096821F40001024A08321160704700003F
:100C80000024014000280140003C0140FFFEF0FF2D
:100C9000FDF7F1FFFFFD3FFF0246002013680B4206
:100CA00001D0012000E000207047CA430260704775
:100CB00070B502460020002300240B125568CEB206
:100CC00005EA060415681D4202D00CB1012000E0BF
:100CD000002070BD00220A12D34303607047000059
:100CE000002044490860091D0860091D0860091DAD
:100CF000086041483F4914310860704700213D4970
:100D00008279002A3AD00A46126803689A430B4651
:100D10001A600A1D126803689A430B1D1A60027953
:100D200011440A6803681A430A60324A083212689A
:100D300003689A432F4B08331A601A1D1268036820
:100D40009A432C4B0C331A604279102A0ED11A1F89
:100D5000126803681A43274B08331A601A1D126879
:100D600003681A43234B0C331A600DE02149427982
:100D700011440A6803681A430A6005E002791144C5
:100D80000A6803689A430A60704700210160017194
:100D90000C21417100218171704716491031096899
:100DA0000143144A10321160704701460020114A75
:100DB000143212680A4201D0012000E0002070477E
:100DC0000C49143108607047014600200022094B8D
:100DD0001B6803EA0102074B14331B680B4202D065
:100DE0000AB1012000E00020704702491431086078
:100DF0007047000000040140FFFF0F000146002083
:100E0000FE4A106800F03800084310607047FB4944
:100E1000096821F00801F94A116011460968014387
:100E200011607047F549096821F01001F34A11601B
:100E300011460968014311607047F148EF49486065
:100E4000F04848607047EE48EC494860ED4848601B
:100E50007047EA48006940F08000E849086170473F
:100E6000E648006940F08000E449086170470420CA
:100E7000E249C96811F0010F01D001200EE0DF49FD
:100E8000C96811F0040F01D0022007E0DB49C968EE
:100E900011F0100F01D0032000E00420704700B5CE
:100EA00002460423FFF7E3FF034603E0FFF7DFFFFB
:100EB0000346521E012B01D1002AF7D102B90523A6
:100EC000184600BD30B5044604254FF43020FFF726
:100ED000E6FF0546042D17D1C848006940F002001E
:100EE000C649086108464461006940F04000086155
:100EF0004FF43020FFF7D3FF0546C048006941F6A4
:100F0000FD710840BD490861284630BD10B5042474
:100F10004FF43020FFF7C3FF0446042C16D1B74826
:100F2000006940F00400B54908610846006940F0D6
:100F3000400008614FF43020FFF7B1FF0446AF488E
:100F4000006941F6FB710840AC490861204610BDBC
:100F500000B502460423FFF78AFF034603E0FFF7CC
:100F600086FF0346521E012B01D1002AF7D102B998
:100F70000523184600BD10B504244FF43020FFF7B8
:100F8000E7FF0446042C16D19C48006940F0040099
:100F90009A4908610846006940F0400008614FF432
:100FA0003020FFF7D5FF04469448006941F6FB71F5
:100FB000084092490861204610BD00208F49C96948
:100FC00011F0020F01D0012000E00020704730B581
:100FD000A5250424FFF7F1FF00B100254FF43020D0
:100FE000FFF75DFF0446042C3AD1854883498860A9
:100FF000844888600846006940F02000086108467F
:10100000006940F0400008614FF43020FFF747FFCF
:101010000446042C1BD17948006941F6DF71084071
:10102000764908610846006940F01000086176487A
:101030000580E002FFF733FF0446052C10D06F480F
:10104000006941F6EF7108406C49086108E0052C21
:1010500006D06A48006941F6EF71084067490861A7
:10106000204630BD78B506460C4604250020009089
:10107000E802FFF714FF0546042D24D15F480069FC
:1010800040F001005D4908613480E802FFF707FF86
:101090000546042D10D1B01C0090200C009908804A
:1010A000E802FFF7FCFE05465448006941F6FE7170
:1010B00008405249086106E05048006941F6FE7157
:1010C00008404E490861284678BD70B504460D4673
:1010D0000426F002FFF7E3FE0646042E11D147482E
:1010E000006940F00100454908612580F002FFF7E2
:1010F000D6FE06464148006941F6FE7108403F4968
:101100000861304670BD70B505460E460424E00205
:10111000FFF7C5FE0446042C17D1394837498860CB
:10112000384888600846006940F0100008612E8049
:10113000E002FFF7B4FE0446052C06D02F480069F4
:1011400041F6EF7108402D490861204670BD2DE938
:10115000F04304464FF6FF763746B046B1460425C5
:10116000E443E6B2C4F30727C4F307484FEA14691F
:10117000E802FFF794FE0546042D49D120481F4997
:101180008860204888600846006940F010000861C7
:10119000FF2E06D01C4808300680E802FFF77FFECD
:1011A0000546042D08D1FF2F06D017480A300780C6
:1011B000E802FFF774FE0546042D0AD1B8F1FF0FCF
:1011C00007D011480C30A0F80080E802FFF767FE56
:1011D0000546042D0AD1B9F1FF0F07D00A480E3099
:1011E000A0F80090E802FFF75AFE0546052D0FD043
:1011F0000248006941F6EF71084007E00020024014
:1012000023016745AB89EFCD00F8FF1F66490861F0
:101210002846BDE8F08330B5054604244FF430205D
:10122000FFF73DFE0446042C41D160485E498860CA
:101230005F4888600846006940F020000861084661
:10124000006940F0400008614FF43020FFF727FEAE
:101250000446042C22D15448006941F6DF7108404D
:10126000514908610846006940F0100008611DB14D
:1012700000205049088002E0A5204E4908804FF424
:101280003020FFF70CFE0446052C10D046480069BC
:1012900041F6EF7108404449086108E0052C06D08A
:1012A0004148006941F6DF7108403F490861204626
:1012B00030BDF0B505460E46174604243B483A4972
:1012C00088603B488860E002FFF7E9FD0446042C93
:1012D00019D13548006940F010003349086147F0E2
:1012E000F800304328433349891C0880E002FFF7A7
:1012F000D6FD0446052C06D02B48006941F6EF7157
:101300000840294908612046F0BD2748C069800887
:1013100070472548006A704700202349096811F08A
:10132000200F01D0012000E00020704729B11E4AA3
:10133000126902431C4B1A6104E01B4A1269824382
:10134000194B1A61704701460020012908D1164A3D
:10135000D26912F0010F01D0012008E0002006E060
:10136000114AD2680A4201D0012000E000207047F3
:101370000D49C860704704200B49C96811F0010F7E
:1013800001D001200EE00849C96811F0040F01D016
:10139000022007E00449C96811F0100F01D00320B2
:1013A00000E0042070470000002002402301674550
:1013B000AB89EFCD00F8FF1F10B50446CA48844240
:1013C00008D101210420FFF7A7F900210420FFF72D
:1013D000A3F946E0C548844208D101210820FFF75F
:1013E0009BF900210820FFF797F93AE0C0488442B2
:1013F00008D101211020FFF78FF900211020FFF7FD
:101400008BF92EE0BB48844208D101212020FFF750
:1014100083F900212020FFF77FF922E0B6488442BB
:1014200008D101214020FFF777F900214020FFF784
:1014300073F916E0B148844208D101218020FFF7FA
:101440006BF900218020FFF767F90AE0AC4884427D
:1014500007D101218015FFF75FF90021A015FFF7E3
:101460005BF910BD10B501210846FFF755F90021C1
:101470000120FFF751F910BD2DE9F041024600258A
:101480000026002000230024002791F803C00CF060
:101490000F0591F803C01CF0100F03D091F802C0A3
:1014A0004CEA050591F800C0BCF1000F31D014687A
:1014B00000202BE04FF0010C0CFA00F3B1F800C053
:1014C0000CEA03069E4220D183004FF00F0C0CFA69
:1014D00003F7BC4305FA03FC4CEA040491F803C08B
:1014E000BCF1280F06D14FF0010C0CFA00FCC2F839
:1014F00014C00AE091F803C0BCF1480F05D14FF0C9
:10150000010C0CFA00FCC2F810C0401C0828D1D312
:101510001460B1F800C0BCF1FF0F34DD5468002046
:101520002EE000F1080C4FF0010808FA0CF3B1F8B6
:1015300000C00CEA03069E4221D183004FF00F0C3D
:101540000CFA03F7BC4305FA03FC4CEA040491F8D7
:1015500003C0BCF1280F05D100F1080C08FA0CF803
:10156000C2F8148091F803C0BCF1480F07D100F114
:10157000080C4FF0010808FA0CF8C2F81080401C63
:101580000828CED35460BDE8F0814FF6FF7101808A
:10159000022181700421C1707047024600209368C7
:1015A0000B4201D0012000E000207047014688680E
:1015B00080B2704702460020D3680B4201D0012060
:1015C00000E0002070470146C86880B270470161A2
:1015D0007047416170470AB1016100E041617047A5
:1015E000C16070474FF480320A4382618161826139
:1015F00082698269704702460020424B18684FF6A4
:101600008073184040EA021008433E4B1860704750
:101610003D49C8617047F0B50A4600230024002107
:10162000002500F00046B6F1004F02D1354EF169B9
:1016300001E0344E7168C0F3034583B200F44016F4
:10164000B6F5401F08D121F070612E4E766826F065
:1016500070662C4F7E6012E000F48016B6F5801F95
:1016600006D1032606FA05F4A14341F0706106E0B5
:10167000460D360103FA06F6B14341F0706122B11E
:10168000460D360103FA06F6314300F00046B6F186
:10169000004F02D11B4EF16101E01A4E7160F0BDA6
:1016A00030B500228B071C0F0F2303FA04F2154BF1
:1016B00008338C1053F824309343124C08348D10A7
:1016C00044F8253023468C1053F824308C07240F1F
:1016D00000FA04F423430B4C08348D1044F82530F1
:1016E00030BD0A490860704700080140000C014005
:1016F000001001400014014000180140001C01408E
:10170000002001400000014000002042DC00204297
:1017100010B50446BE48844208D101218014FEF76A
:10172000FBFF0021A014FEF7F7FF16E0B948844242
:1017300008D101210014FEF7FCFF00212014FEF760
:10174000F8FF0AE0B448844207D10121C013FEF734
:10175000F0FF0021E013FEF7ECFF10BD10B50022F2
:10176000028802F441520B884C8823438C8823431F
:10177000CC8823430C8923434C8923438C892343FE
:10178000CC8923431A430280838B4FF2FF7423409A
:1017900083830B8A038210BD2DE9F04F85B0054687
:1017A0000C464FF0000902274FF000084FF0010BE4
:1017B0000026B246A88B4FF240010840A8830220C1
:1017C0002884B5F81C90A068022801D100BF38E039
:1017D000A08810B94FF0010B01E04FF0020B8D48CB
:1017E000854200D100E000BF6846FEF70EFFDDF83D
:1017F00000A0E088B0F5007F0AD14FEA1A2000EB84
:1018000080004000A168B0FBF1F0401D86B20BE003
:101810004FEA4B10BAFBF0F000EB80004000A168EB
:10182000B0FBF1F0401D86B20A20B6FBF0F606F0E0
:101830000108A6EB0800C0F34F074FF6FF7000EA5F
:101840000828022F01DBFF2F02DD02274FF00008DE
:10185000E08840EA080038432884A088A18908432A
:10186000618808432188084340F4006040EA090980
:10187000A5F81C9005B0BDE8F08F002101804180E3
:101880008180C180018141818181C18107210182E3
:1018900070470021018041808180C18002218160E8
:1018A00000218181704721B1028842F0400202800C
:1018B00004E002884FF6BF731A400280704721B1DE
:1018C000828B42F48062828304E0828B4FF6FF3386
:1018D0001A408283704730B5002400230C11012583
:1018E000A540ABB21AB185881D43858002E085888A
:1018F0009D43858030BD1AB183880B43838002E00D
:1019000083888B4383807047818170470146888933
:101910007047A1F57E42FF3A04D0028842F48072FB
:10192000028004E002884FF6FF631A40028070478D
:1019300021B1828842F00402828004E082884FF65E
:10194000FB731A408280704702884FF2FF731A407F
:10195000028002880A4302807047018841F4805166
:101960000180704721B1028842F40052028004E0F5
:1019700002884DF6FF731A4002807047024600202D
:10198000012901D0108B00E0908A70470146088A37
:101990007047B1F5804F04D1028842F48042028042
:1019A00004E002884BF6FF731A400280704702463B
:1019B000002013890B4201D0012000E00020704775
:1019C000CA4302817047F0B502460020002400237C
:1019D000002501F00F070126BE40B4B20B1101260D
:1019E0009E40B3B2968806EA03051689264202D0C5
:1019F0000DB1012000E00020F0BD10B5002201F083
:101A00000F040123A3409AB2D343038110BD000009
:101A10000030014000380040003C004010B5044652
:101A2000FE48844208D10121C014FEF775FE002152
:101A3000E014FEF771FEC4E0B4F1804F08D101213B
:101A40000846FEF776FE00210120FEF772FEB8E0A0
:101A5000F348844208D101210220FEF76AFE0021EA
:101A60000220FEF766FEACE0EE48844208D1012178
:101A70000420FEF75EFE00210420FEF75AFEA0E0DF
:101A8000E948844208D101210820FEF752FE0021D6
:101A90000820FEF74EFE94E0E448844208D101217C
:101AA0001020FEF746FE00211020FEF742FE88E0DF
:101AB000DF48844208D101212020FEF73AFE0021B0
:101AC0002020FEF736FE7CE0DA48844208D101216E
:101AD0004014FEF721FE00216014FEF71DFE70E0A9
:101AE000D548844209D10121C804FEF715FE002122
:101AF0004FF40020FEF710FE63E0D048844209D185
:101B000001210805FEF708FE00214FF48010FEF7C2
:101B100003FE56E0CA48844209D101214805FEF778
:101B2000FBFD00214FF40010FEF7F6FD49E0C5482B
:101B3000844208D101214020FEF7FBFD0021402016
:101B4000FEF7F7FD3DE0C048844208D10121802026
:101B5000FEF7EFFD00218020FEF7EBFD31E0BB48F2
:101B6000844208D101218015FEF7E3FD0021A01574
:101B7000FEF7DFFD25E0B648844209D101210804C3
:101B8000FEF7CAFD00214FF48030FEF7C5FD18E0D6
:101B9000B048844209D101214804FEF7BDFD00216F
:101BA0004FF40030FEF7B8FD0BE0AB48844208D19B
:101BB00001218804FEF7B0FD00214FF48020FEF7DC
:101BC000ABFD10BD00220288944B98420ED0994B79
:101BD00098420BD0B0F1804F08D0914B984205D07D
:101BE000904B984202D0904B984204D14FF68F739D
:101BF0001A404B881A438D4B984207D08C4B984221
:101C000004D04FF6FF431A40CB881A4302808B88DA
:101C100083850B880385814B98420BD0854B984276
:101C200008D08B4B984205D08A4B984202D08A4B01
:101C3000984201D10B7A038601238382704770B5E5
:101C4000002400220023058C4FF6FE7635400584E3
:101C5000028C8388048B4FF68F752C40B51E2C4068
:101C60000D882C43751E2A400D892A434D882A432E
:101C70006A4DA8420BD06F4DA84208D0744DA842BF
:101C800005D0744DA84202D0734DA84213D14FF62F
:101C9000F7752A404D892A434FF6FB752A408D88F7
:101CA0002A434FF6FF652B404FF6FF552B408D8999
:101CB0002B43CD892B4383800483CD888586028482
:101CC00070BD70B5002400220023058C4FF6EF761E
:101CD00035400584028C8388048B48F6FF752C40C0
:101CE0004FF6FF452C400D884FF6FF7606EA052596
:101CF0002C434FF6DF752A400D8906EA05152A4365
:101D00004D8806EA05152A43444DA84202D0494DA4
:101D1000A8421DD14FF67F752A404D894FF6FF76B8
:101D200006EA05152A434FF6BF752A408D8806EA54
:101D300005152A434FF6FF352B404FF2FF752B4018
:101D40008D8906EA85052B43CD8906EA85052B4357
:101D500083800483CD880587028470BD70B500241C
:101D600000220023058C4FF6FF6635400584028C67
:101D70008388848B4FF68F752C404FF6FC752C4072
:101D80000D882C434FF6FF552A400D894FF6FF76FC
:101D900006EA05252A434D8806EA05252A431F4DF4
:101DA000A84202D0234DA8421DD14FF2FF752A4010
:101DB0004D894FF6FF7606EA05252A434FF6FF3593
:101DC0002A408D8806EA05252A434EF6FF752B40EA
:101DD0004DF6FF752B408D8906EA05152B43CD89FD
:101DE00006EA05152B4383808483CD88858702848A
:101DF00070BD70B5002200230024058C4EF6FF76DE
:101E000035400584038C8488828B48F6FF752A4010
:101E10004FF6FF452A400D8820E00000002C0140CD
:101E20000004004000080040000C0040001000408A
:101E30000014004000340140004C014000500140BB
:101E40000054014000180040001C004000200040E9
:101E50000040014000440140004801404FF6FF7639
:101E600006EA05252A434DF6FF752B400D8906EA43
:101E700005352B434D8806EA05352B43FA4DA8421C
:101E800002D0FA4DA84208D14BF6FF752C408D893F
:101E90004FF6FF7606EA85152C4384808283CD8831
:101EA000A0F84050038470BD828B4FF2FF331A407C
:101EB0008283828B4FF6FF7303EA01231A438283E6
:101EC0007047F0B50C461546002200210026078C0D
:101ED0004EF6FF7C07EA0C070784828B018C4FF6D5
:101EE000FF7707EA043640F6FF473A404FF6FF77A0
:101EF00007EA05273A434FF6FF7707EA03373A43E5
:101F0000D94FB8420ED0D94FB8420BD0B0F1804F64
:101F100008D0D74FB84205D0D64FB84202D0D64FDE
:101F2000B84206D14DF6FF77394046F48057394321
:101F300005E047F6FF57394044F480573943828320
:101F40000184F0BD828B4FF6F3731A408283828B3B
:101F50000A4382837047F0B50C46154600220021E3
:101F60000026078C4FF6FF6C07EA0C070784828B6C
:101F7000018C4FF6FF7707EA04264FF60C773A40BC
:101F80004FF6FF7707EA03172F433A43B64FB8429D
:101F90000ED0B64FB8420BD0B0F1804F08D0B44F3E
:101FA000B84205D0B34FB84202D0B34FB84206D1C1
:101FB0004FF6FF57394046F48077394305E04FF23A
:101FC000FF57394044F48077394382830184F0BD60
:101FD000028B4FF2FF331A400283028B4FF6FF73DE
:101FE00003EA01231A4302837047F0B50C461546F5
:101FF000002200210026078C4FF6EF7C07EA0C0731
:102000000784028B018C4FF6FF7707EA041640F62F
:10201000FF473A404FF6FF7707EA03373A434FF658
:10202000FF7707EA05273A438F4FB8420ED08F4F0C
:10203000B8420BD0B0F1804F08D08D4FB84205D0D8
:102040008C4FB84202D08C4FB84206D14FF6DF77A2
:10205000394046F01007394305E04FF65F773940C5
:1020600044F01007394302830184F0BD028B4FF620
:10207000F3731A400283028B0A4302837047F0B560
:102080000C46154600220021068C4FF6FE773E4096
:102090000684028B018C4FF60C7632407E1C06EAD9
:1020A00003162E433243704EB0420ED06F4EB042F4
:1020B0000BD0B0F1804F08D06D4EB04205D06D4EC0
:1020C000B04202D06C4EB04206D14FF6FD763140A0
:1020D00044F00106314305E04FF6F576314044F017
:1020E0000106314302830184F0BD70B505460C46FC
:1020F0005D4885420ED05D4885420BD0B5F1804FDA
:1021000008D05B48854205D05A48854202D05A48DB
:10211000854200D100E000BF208850B92389A28801
:1021200061882846FFF7ABFFE1882846FFF79EFF4E
:1021300025E0208804280AD12389A28861882846BE
:10214000FFF753FFE1882846FFF742FF17E020889A
:1021500008280AD12389A28861882846FFF7FBFE58
:10216000E1882846FFF7EEFE09E02389A28861880E
:102170002846FFF7A6FEE1882846FFF795FE70BDCA
:102180002DE9F04105460C4600260127608808B974
:10219000022600E00026A088012801D1022700E0E5
:1021A00001272088A0B92389A28861882846FFF7E3
:1021B00066FFE1882846FFF759FF23893A463146F2
:1021C0002846FFF712FFE1882846FFF701FF13E0DA
:1021D0002389A28861882846FFF707FFE1882846FF
:1021E000FFF7F6FE23893A4631462846FFF747FFB8
:1021F000E1882846FFF73AFFBDE8F0810A884B885E
:102200001A438B881A43CB881A430B891A434B898C
:102210001A438B891A43A0F8442070474FF6FF7188
:10222000818000210180C1804180017270470021BE
:10223000018041808180C180018141818181C18192
:102240007047002101804180012181800021C180EF
:10225000018170470021018041808180C18001811E
:102260004181818170470000002C01400034014011
:102270000004004000080040000C004021B102882A
:1022800042F00102028004E002884FF6FE731A4019
:102290000280704731B1B0F8442042F40042A0F807
:1022A000442005E0B0F84420C2F30E02A0F8442018
:1022B00070471AB183890B43838102E083898B4382
:1022C000838170478182704741EA0203A0F8483059
:1022D00070471AB183890B43838102E083898B4362
:1022E0008381704701894FF6F87211400181704770
:1022F0000A46002101894FF68F731940114301816D
:10230000704730B504460D4629462046FFF7F0FFDA
:10231000208940F00700208130BD2DE9F0410446BE
:102320000D4616461F46602D06D13B46012231461A
:102330002046FFF75AFE05E03B4601223146204683
:10234000FFF79DFE29462046FFF7D2FF208940F087
:1023500007002081BDE8F08130B50C4600210189DD
:10236000C9B24FF6FF7505EA0325154325432943F6
:10237000018130BD2DE9F04105460E4617469846CD
:10238000002443463A4631462846FFF7E5FF2C89AC
:102390004FF6F870044044F007044FF68F70044085
:1023A00044F070042C81BDE8F081F0B504460D4680
:1023B00016461F463B46324629462046FFF7CCFFCD
:1023C000208940F480402081F0BD018582827047E1
:1023D0000A46002101884FF68F731940114301808E
:1023E0007047F0B50C4615461E460021002200231A
:1023F0000189028B038C4FF6F877394021434FF661
:10240000FC473A4040F201173A434FF6DD773B4034
:102410004FF6FF7707EA06172F433B4301810283FC
:102420000384F0BD0A460021018B4FF68F731940DB
:102430001143018370470A460021018B48F6FF7360
:1024400019404FF6FF7303EA0223194301837047D3
:102450000A460021818B4FF68F7319401143818307
:1024600070470A460021818B48F6FF7319404FF6EA
:10247000FF7303EA022319438183704721B1028865
:1024800042F08002028004E002884FF67F731A4017
:102490000280704721B1828842F00402828004E009
:1024A00082884FF6FB731A408280704721B1828880
:1024B00042F00802828004E082884FF6F7731A40E7
:1024C0008280704721B1828842F00102828004E05C
:1024D00082884FF6FE731A40828070470A460021B8
:1024E000018B4FF6F77319401143018370470A4679
:1024F0000021018B4FF2FF7319404FF6FF7303EA7F
:1025000002231943018370470A460021818B4FF64D
:10251000F77319401143818370470A460021818B6C
:102520004FF2FF7319404FF6FF7303EA022319437A
:10253000818370470A460021018B4FF6FB731940D7
:102540001143018370470A460021018B4FF6FF3388
:1025500019404FF6FF7303EA0223194301837047C2
:102560000A460021818B4FF6FB731940114381838A
:1025700070470A460021818B4FF6FF3319404FF612
:10258000FF7303EA02231943818370470A4600213F
:10259000018B4FF67F7319401143018370470A4640
:1025A0000021018BC1F30E014FF6FF7303EA0223F2
:1025B0001943018370470A460021818B4FF67F73D0
:1025C00019401143818370470A460021818BC1F372
:1025D0000E014FF6FF7303EA02231943818370470C
:1025E0000A460021018C4FF6FD7319401143018406
:1025F00070470A460021018C4FF6F77319401143CA
:10260000018470470A460021018C4FF6DF731940A0
:102610004FF6FF7303EA02131943018470470A4619
:102620000021018C4FF67F7319404FF6FF7303EAC8
:1026300002131943018470470A460021018C4FF6AA
:10264000FF5319404FF6FF7303EA02231943018435
:1026500070470A460021018C4FF2FF7319404FF674
:10266000FF7303EA02231943018470470A460021DD
:10267000018C4DF6FF7319404FF6FF7303EA0233E6
:1026800019430184704730B5002301248C40A3B264
:10269000048C9C430484048C02FA01F5ADB22C43F3
:1026A000048430BD30B5002304248C40A3B2048CD4
:1026B0009C430484048C02FA01F5ADB22C430484DB
:1026C00030BD70B50346002000241846183001259F
:1026D0008D40ACB21D8CA5431D8409B1082909D1D8
:1026E00000EB6100056825F070050560056815437D
:1026F00005600EE00D1FC5F34E052844056825F45E
:10270000E045056005684FF6FF7606EA0226354388
:10271000056070BD21B1028842F00202028004E02F
:1027200002884FF6FD731A400280704721B102887B
:1027300042F00402028004E002884FF6FB731A4064
:102740000280704721B1828842F08002828004E0DA
:1027500082884FF67F731A408280704702884FF656
:10276000F7731A40028002880A4302807047828809
:102770004FF68F731A40828082880A4382807047A6
:1027800002894FF6F8731A40028102890A430281D6
:10279000704702894FF67F731A40028102890A430B
:1027A00002817047818470478185704781867047B8
:1027B0000187704781877047A0F8401070470288F2
:1027C0004FF6FF431A40028002880A430280704796
:1027D0000146888E70470146088F70470146888FF2
:1027E00070470146B1F8400070470146888C704739
:1027F0000146088D704702460020138A0B4201D023
:10280000012000E000207047CA430282704730B5C3
:102810000246002000230024158A05EA0103958959
:1028200005EA010413B10CB1012000E0002030BD25
:10283000CA4302827047000010B50446FB48844238
:1028400009D101218803FDF767FF00214FF4804083
:10285000FDF762FF32E0F648844209D101214804C5
:10286000FDF767FF00214FF40030FDF762FF25E020
:10287000F048844209D101218804FDF75AFF002164
:102880004FF48020FDF755FF18E0EB48844209D152
:102890000121C804FDF74DFF00214FF40020FDF792
:1028A00048FF0BE0E548844208D101210805FDF707
:1028B00040FF00214FF48010FDF73BFF10BD2DE9D4
:1028C000F04786B005460E460024A24600BFA1464A
:1028D0000027B08900B100BF2F462C8A4CF6FF704C
:1028E0000440F08804432C82AC894EF6F310044077
:1028F000B08831890843718908430443AC81AC8AAC
:102900004FF6FF400440B0890443AC8201A8FDF7B4
:102910007CFEC648874202D1DDF810A001E0DDF858
:102920000CA0A88910F4004F08D00AEBCA0000EBF5
:102930000A1031684900B0FBF1F807E00AEBCA0061
:1029400000EB0A1031688900B0FBF1F86420B8FB95
:10295000F0F004012009642101FB1089A88910F41A
:10296000004F08D0322000EBC900B0FBF1F000F0BE
:102970000700044308E0322000EB09106421B0FB9B
:10298000F1F000F00F0004432C8106B0BDE8F087A1
:102990004FF41651016000218180C18001810C211A
:1029A000418100218181704710B502460020108AC4
:1029B0004FF2FF0318400B884C8823438C88234335
:1029C000CC8823431843108210BD00210180418030
:1029D0008180C180704721B1828942F40052828196
:1029E00004E082894DF6FF731A4082817047F0B58A
:1029F00003460024002600250020A1F510676A3F49
:102A000000D100BF1846C1F3421401F01F06012790
:102A100007FA06F5012C01D10C3004E0022C01D19B
:102A2000103000E014301AB107682F43076002E04D
:102A30000768AF430760F0BD1AB1838A0B438382F6
:102A400002E0838A8B4383827047028A4FF6F073D9
:102A50001A400282028A0A430282704782894FF238
:102A6000FF731A40828182890A438281704721B1B3
:102A7000828942F00202828104E082894FF6FD736E
:102A80001A4082817047028A4FF6DF731A40028231
:102A9000028A0A430282704721B1028A42F48042CC
:102AA000028204E0028A4BF6FF731A4002827047EA
:102AB000C1F308028280704701468888C0F308008D
:102AC0007047818941F0010181817047028BD2B248
:102AD0000283028B42EA012202837047028B02F4D6
:102AE0007F420283028B0A430283704721B1828AAC
:102AF00042F02002828204E0828A4FF6DF731A409D
:102B00008282704721B1828A42F01002828204E000
:102B1000828A4FF6EF731A408282704721B1828A0F
:102B200042F00802828204E0828A4FF6F7731A406C
:102B30008282704721B1828942F40042828103E09F
:102B40008289C2F30E028281704721B1828A42F4E7
:102B50000062828204E0828A4FF2FF731A4082820E
:102B60007047828A4FF6FB731A408282828A0A4338
:102B70008282704721B1828A42F00202828204E09E
:102B8000828A4FF6FD731A40828270470246002007
:102B9000B1F5007F00D100BF13880B4201D00120A6
:102BA00000E00020704701F40072B2F5007F00D110
:102BB00000BFCA430280704770B50246002400235C
:102BC00000250020A1F510666A3E00D100BFC1F3C8
:102BD000421501F01F03012606FA03F3012D02D16D
:102BE0009689334006E0022D02D1168A334001E077
:102BF000968A33400C12012606FA04F416883440F3
:102C000013B10CB1012000E0002070BD10B500220E
:102C10000023A1F510646A3C00D100BF0A12012410
:102C20009440A3B2DC43048010BD00000038014092
:102C30000044004000480040004C0040005000406C
:102C400001684FF6FE721140016000210160416091
:102C50008160C1608C49884208D18B490839496834
:102C600041F00F01884A083A51608AE086491431E0
:102C7000884208D184490839496841F0F001824A04
:102C8000083A51607DE080492831884208D17E4968
:102C90000839496841F470617B4A083A516070E034
:102CA00079493C31884208D177490839496841F46B
:102CB0007041754A083A516063E073495031884267
:102CC00008D171490839496841F470216E4A083ABF
:102CD000516056E06C496431884208D16A4908392C
:102CE000496841F47001684A083A516049E0664910
:102CF0007831884208D164490839496841F07061E7
:102D0000614A083A51603CE06049884206D1011F9F
:102D1000096841F00F01021F116032E05B49143174
:102D2000884208D15949091F096841F0F001574A02
:102D3000121F116025E055492831884208D15349B6
:102D4000091F096841F47061504A121F116018E0B0
:102D50004E493C31884208D14C49091F096841F469
:102D600070414A4A121F11600BE0484950318842B5
:102D700007D14649091F096841F47021434A121FCF
:102D80001160704710B50022026847F6F0739A434D
:102D90000C6A8B6823430C6923434C6923438C6979
:102DA0002343CC6923434C6A23438C6A23431A434D
:102DB0000260CB6843600B6883604B68C36010BDE2
:102DC0000021016041608160C160016141618161F8
:102DD000C161016241628162704721B1026842F0C3
:102DE0000102026004E002684FF6FE731A400260BE
:102DF00070471AB103680B43036002E003688B431A
:102E000003607047416070470146486880B2704770
:102E100001460020002211F0805F03D01B4B083BCD
:102E20001A6802E0184B083B1A680A4201D00120D8
:102E300000E00020704710F0805F03D01349091FA5
:102E4000086002E0104908394860704701460020D8
:102E5000002211F0805F03D00C4B083B1A6802E09F
:102E6000094B083B1A680A4201D0012000E000200B
:102E7000704710F0805F03D00449091F086002E02A
:102E800001490839486070470800024008040240C0
:102E900010B50446F748844209D101214805FDF7E1
:102EA00048FC00214FF40010FDF743FC08E001212D
:102EB0008805FDF73EFC00214FF48000FDF739FC4A
:102EC00010BD2DE9F04385B004460D460026B146FD
:102ED0000427DFF8A483A6884FF6C0700640684632
:102EE000FDF793FBDDF80880E448B8FBF0F01FFA2B
:102EF00080F946EA0906A68020884FF6FE71084050
:102F000020800026DE49286888420CD828684000C6
:102F1000B8FBF0F087B2042F00DA04273E4309F132
:102F20000100208427E0E888A0F53F41FF3906D161
:102F3000286800EB4000B8FBF0F087B209E0286891
:102F400000EBC00101EB0010B8FBF0F087B247F4D2
:102F500080473805000D01D147F0010747F40040D4
:102F600006434FF4967009FB00F04FF47A7190FB22
:102F7000F1F0401C2084A683208840F001002080CE
:102F800026884FF6F5300640A8886989084306432D
:102F90002680A88929890843208105B0BDE8F083EF
:102FA00041F288310160002181804BF6FF71C180C0
:102FB0000021018141814FF480418181704721B11D
:102FC000028842F00102028004E002884FF6FE739C
:102FD0001A400280704721B1828842F400628280E8
:102FE00004E082884FF2FF731A408280704721B15B
:102FF000828842F48052828004E082884EF6FF7319
:103000001A408280704721B1028842F480720280A7
:1030100004E002884FF6FF631A400280704721B136
:10302000028842F40072028004E002884FF6FF53E7
:103030001A400280704721B1028842F48062028007
:1030400004E002884FF6FF331A40028070470A46B8
:10305000002181894FF60173194002F0FE031943E4
:103060008181704721B1828942F00102828104E0AE
:1030700082894FF6FE731A408281704721B102881F
:1030800042F04002028004E002884FF6BF731A400B
:10309000028070471AB183880B43838002E08388E3
:1030A0008B4383807047018270470146088AC0B213
:1030B000704712B141F0010102E04FF6FE73194072
:1030C0000182704708B502460020009000920098E7
:1030D000084400900098008808BD21B1028842F49D
:1030E0000042028003E00288C2F30E0202807047B1
:1030F000B1F5006F04D1028842F40062028004E05E
:1031000002884FF2FF731A4002807047B1F5005FEA
:1031100004D1028842F40052028004E002884DF695
:10312000FF731A400280704721B1028842F4805236
:10313000028004E002884EF6FF731A400280704756
:10314000B1F5006F04D1028842F40062028004E00D
:1031500002884FF2FF731A400280704721B1028843
:1031600042F02002028004E002884FF6DF731A402A
:10317000028070470146088B0012704721B1028817
:1031800042F01002028004E002884FF6EF731A400A
:103190000280704721B9028842F08002028004E078
:1031A00002884FF67F731A4002807047B1F5804F56
:1031B00005D0828B4BF6FF731A40828303E0828B2B
:1031C00042F480428283704770B502460024002595
:1031D00000230020958A138B1B0445EA030626F082
:1031E0007F4404EA01068E4201D1012000E0002064
:1031F00070BD10B501460020002300228B8A0A8B87
:10320000120443EA020424F07F4010BD0CB50246CC
:10321000002000230193009300920B0F019321F0F3
:103220007F41019B1BB1009B1433009303E0090C09
:10323000009B18330093009B1B680B4201D00120B8
:1032400000E000200CBD002221F07F42D3438382A6
:10325000704730B5024600200023948801F0E065F5
:1032600004EA154321F07F41948A0C420AD04BB105
:10327000012008E00054004000127A0040420F0094
:10328000A0860100002030BD002221F07F42D34300
:103290008382704700206C49086048608860C8607D
:1032A00048628862C862694888630020C8637047C2
:1032B0000021654A516847F6FF629143027D8368A9
:1032C0001A4343681A43C3681A4303681A430369DD
:1032D0001A4311435C4A5160704700210175016037
:1032E00041608160C1600161704759490860704761
:1032F0005549096821F00301534A116011460968D4
:103300000143116070475048006800F003007047A7
:1033100029B14D4AD26B02434B4BDA6304E04A4A6F
:10332000D26B8243484BDA6370474A490860704762
:103330000021454B02689A601A46D1686FF30A0172
:10334000D0E901231A43C3681A4303691A4311439E
:103350003D4AD16070470021016041608160C160D9
:103360000161704738480069C0B2704708B501462E
:103370000020009034481430084400900098006801
:1033800008BD0021304B02685A6242689A621A46B0
:10339000D16A21F0F701D0E902231A4303691A43E5
:1033A00043691A431143284AD16270474FF0FF31F5
:1033B0000160002141608160C1600161416170472D
:1033C0002148006B70472448006870472249086014
:1033D00070471D48806C70471E4914310860704763
:1033E0001C491831086070471A491C310860704741
:1033F000184920310860704718490860704718491B
:103400000860704701218143164A116070471649D0
:1034100008607047014600200B4A526B0A4201D0F7
:10342000012000E00020704707498863704701468B
:103430000020054A526B0A4201D0012000E0002022
:10344000704701498863704700800140FF07C00052
:10345000A00030428C05304280800140AC013042F7
:10346000B0013042B4013042B80130422248006815
:103470004FF47A72B0FBF2F1B1F1807F00D31BE020
:1034800021F07F40401E4FF0E022506150170F2284
:10349000002806DA1301194C00F00F052D1F6355A3
:1034A00002E01301164C235400BF00204FF0E0222D
:1034B00090610720106100BF00F0CAFA00F04CFADA
:1034C00000F082F800F0E2F800F048F900F062FE47
:1034D00001F0D8FC00F02EFC00F0D8FA02F0F2F96E
:1034E00009E001F0DBFE0748006802F07AFA0648BE
:1034F000006802F025FBF4E70000002018ED00E072
:1035000000E400E0180200201C020020704700BF09
:10351000FEE700BFFEE700BFFEE700BFFEE7704723
:103520007047704710B525480078401CC0B2234949
:103530000870142803DB00F09FF801F0A9FE10BD0D
:1035400010B540F225510020FFF736FB10B30020E4
:10355000FFF7B2FAC4B21A48008810F4004F2BD11A
:103560001748008810F4804F0CD00A2C03D000209C
:103570001349088020E01248008840F400401049B8
:10358000088019E00D2C06D10D48008840F48040D9
:103590000B49088010E00A480088C0F30D00094973
:1035A0000C5407480088401C0549088008460088DC
:1035B000C72801DD0020088010BD00002800002081
:1035C0002C0000202C02002010B5002000F088FE06
:1035D000012000F085FE002000F09CFE012000F09C
:1035E00099FE10BD10B5044624B1012C09D0022C5F
:1035F00039D113E0002000F08DFE012000F08AFE9A
:1036000038E020480078022807DB00201D490870B8
:1036100000F090FE012000F08DFE2BE019480078AC
:1036200004281FDB00201749087017480078401C49
:103630001549087008460078042806DB002000F0D1
:1036400071FE012000F06EFE05E0002000F072FE29
:10365000012000F06FFE0C4800780A2802DB0020F1
:103660000949087006E0002000F054FE012000F037
:1036700051FE00BF00BF10BD02480078401C014948
:10368000087070472A0000202900002000B585B08E
:1036900001214802FDF726F84FF40040FCF789FFAE
:1036A000002000F0F1FE012000F0EEFE022000F00C
:1036B000EBFE032000F0E8FE042000F0E5FE05200C
:1036C00000F0E2FE062000F0DFFE072000F0DCFE46
:1036D000002000908DF804008DF805004FF4602064
:1036E00002900020039001208DF8100069461A48CE
:1036F000FDF7F5F801211848FDF71DF91648FDF70B
:103700003CF900BF1448FDF73DF90028FAD11248F2
:10371000FDF742F900BF1048FDF743F90028FAD140
:1037200005B000BD70B504460723012221460A48B2
:10373000FDF76DF901210848FDF73DF900BF0221B1
:103740000548FDF7A9FA0028F9D00348FDF7C6F9A6
:103750000546284670BD00000024014000B585B034
:1037600000F0F0FF04217A48FDF731FF0020ADF8AA
:1037700000004FF48270ADF802000020ADF80400A4
:103780000220ADF806000120ADF808004002ADF8B7
:103790000A000820ADF80C000020ADF80E0007204C
:1037A000ADF8100069466B48FDF7D8FF0121694864
:1037B000FEF779F805B000BD10B5044600BF022140
:1037C0006448FEF7F4F80028F9D021466148FEF776
:1037D0009BF800BF01215F48FEF7E9F80028F9D007
:1037E0005C48FEF793F8C0B210BD70B505460C46B4
:1037F00004215748FDF7EDFE2846FFF7DDFF204680
:10380000FFF7DAFF04215248FDF7E1FE70BD2DE914
:10381000F04107460C46154604214D48FDF7D9FEF8
:103820003846FFF7C9FF002605E014F8010BFFF743
:10383000C3FF701CC6B2AE42F7DB04214448FDF75B
:10384000C6FEBDE8F08170B5044604214048FDF78E
:10385000C0FE2046FFF7B0FF05460020FFF7ACFF93
:10386000054604213A48FDF7B2FE284670BD2DE911
:10387000F04107460D46164604213548FDF7A9FEDE
:103880003846FFF799FF002405E00020FFF794FF7A
:103890002855601CC4B2B442F7DB04212C48FDF764
:1038A00096FEBDE8F0812DE9F04107460C4615462D
:1038B0001E46B0473846FFF77FFF2046FFF77CFFE4
:1038C000A847BDE8F0812DE9F04780460C46154633
:1038D0001E46DDF82090C8474046FFF76DFF0027E1
:1038E00005E014F8010BFFF767FF781CC7B2AF4281
:1038F000F7DBB047BDE8F0872DE9F04106460C46FE
:103900001546A8473046FFF757FF07460020FFF748
:1039100053FF0746A0473846BDE8F0812DE9F04740
:1039200080460D4616461F46DDF82090C8474046A3
:10393000FFF742FF002405E00020FFF73DFF285578
:10394000601CC4B2B442F7DBB847BDE8F0870000A2
:10395000000C01400030014000B585B04FF4E0603C
:10396000FCF728FF25208DF8100000208DF81200AC
:1039700001208DF8130004A8FCF721FF4FF4E1307B
:1039800000900020ADF80400ADF80600ADF8080086
:10399000ADF80C000C20ADF80A006946002000F0DC
:1039A0002AFD012240F225510020FFF720F80121D5
:1039B0000020FFF710F80A4802F09EFD05B000BD98
:1039C00070B504460D46E1B20648FFF771F800BF36
:1039D00040210448FFF7DAF80028F9D0204670BDEE
:1039E000607600080038014070B5FDF72CFA04201D
:1039F000214908603420FDF7BBFC00201F49086006
:103A00000EE01E4909681E4A531403FB0120FDF70E
:103A100059FA1C49087019480068401C1749086089
:103A20001648006814490968884203D2154800788E
:103A30000428E6D0144D002405E002CD104AA01859
:103A4000FDF710FB241D682CF7D3FDF709FA70BDB4
:103A50000D49002003E00A4A825804C1001D68286D
:103A6000F9D3094A1288A2F5AA43AA3B03D045F22A
:103A7000AA52054B1A807047340000203000002005
:103A800000E0010838000020F40200209D4A0021D7
:103A900029E012F8110020F0080002F8110012F8D5
:103AA000110020F0040002F8110012F8110020F0BB
:103AB000020002F8110012F8110020F0010002F8D3
:103AC000110012F8110020F0100002F8110012F895
:103AD000110020F0200002F81100002002EB410349
:103AE0005870481CC1B20A29D3DB002070472DE969
:103AF000F041844D0820FFF715FE07460920FFF727
:103B000011FE0646002407E015F8140020F002001C
:103B100005F81400601CC4B20A2CF5DB17E02E2F48
:103B200009DA79480068007820F00200801C7649A4
:103B3000096808700CE0842F09DA7448006800787E
:103B400020F00200801C71490968087000E0E6E777
:103B500000BF64E02E2E09DA6D480068007820F07E
:103B60000200801C6A490968087059E0842E09DA4D
:103B700068480068007820F00200801C65490968E8
:103B800008704DE0CB2E09DA63480068007820F019
:103B90000200801C60490968087041E0B6F5847F26
:103BA00009DA5E480068007820F00200801C5B495A
:103BB0000968087034E0B6F59E7F09DC5848006853
:103BC000007820F00200801C55490968087027E041
:103BD000B6F5B57F09DA53480068007820F0020096
:103BE000801C5049096808701AE0B6F5C87F09DCE6
:103BF0004D480068007820F00200801C4A4909689E
:103C000008700DE0B6F5DB7F09DA484800680078F7
:103C100020F00200801C45490968087000E099E71F
:103C200000BF00245EE015F81400C0F3400015F852
:103C3000141001F0010188420AD115F81400C0F3F4
:103C4000400115F8140061F3C30005F8140009E001
:103C500015F81400C0F3800115F8140061F3C300D7
:103C600005F8140015F81400C0F3C00015F814107E
:103C7000C1F38001884207D105EB44004078401C25
:103C800005EB4401487017E0002005EB4401487043
:103C900015F81400C0F3C00038B115F8140020F076
:103CA0002000203005F8140006E015F8140020F07C
:103CB0001000103005F8140015F81400C0F340018E
:103CC00015F8140061F3000005F8140015F814004D
:103CD000C0F3C00115F8140061F3820005F8140068
:103CE000601CC4B20A2C9EDBBDE8F08110B5104800
:103CF0000078142804DB00200D490870FFF7F7FE58
:103D000010BD00005C0300203C00002040000020AB
:103D100044000020480000204C00002050000020FB
:103D200054000020580000205C00002060000020AB
:103D300064000020FD480068FD490860FB480068F9
:103D40000C30FC490860F94800681830FA490860EE
:103D5000F64800682430F9490860F44800683030BB
:103D6000F7490860F14800683C30F6490860EF48C0
:103D700000684830F4490860EC4800685430F34962
:103D800008600020EA490968C872EA490968C872EF
:103D9000E9490968C872E9490968C872E8490968C7
:103DA000C872E8490968C872E7490968C872E749F2
:103DB0000968C872DE49096888720120DD4909680E
:103DC00088720220DC49096888720320DB4909688F
:103DD00088720420DA49096888720520D94909687F
:103DE00088720620D849096888720720D74909686F
:103DF000887270472DE9F0470024BAE004EB4401D3
:103E0000CA4A126802EB8101887AFFF78BFC0546EB
:103E100004EB4400C549096801EB80008188A94290
:103E20003EDC04EB4401C14A126802EB810189883F
:103E3000681A03F0E9FA804604EB4401BB4A1268B1
:103E400032F8211004EB4402B84B1B6803EB8202EA
:103E50009288881A03F0D8FA07460021384603F002
:103E6000FFFA01D84FF07E573946404603F0EAF991
:103E70008046B749404603F027FB814603F0A4FA89
:103E800086B2B6F5FA7F01DD4FF4FA7606F5FA70E0
:103E900004EB4401A54A126802EB8101C8803FE0AF
:103EA00004EB4401A14A126802EB81018988481B96
:103EB00003F0AAFA804604EB44019C4A126802EB24
:103EC00081018A8804EB4401984B1B6803EB810154
:103ED0004988501A03F098FA07460021384603F043
:103EE000BFFA01D84FF07E573946404603F0AAF991
:103EF00080469749404603F0E7FA814603F064FAAA
:103F000086B2B6F5FA7F01DD4FF4FA76C6F5FA709F
:103F100081B204EB4400854A126802EB8000C18044
:103F200004EB44008149096801EB8000C07A80B14C
:103F300004EB44007D49096801EB8000C088C0F5AE
:103F40007A7004EB4401794A126802EB810108811E
:103F50000DE004EB44007549096801EB8000C0885E
:103F600004EB4401714A126802EB81010881601C74
:103F7000C4B2082CFFF642AFBDE8F08770B5002050
:103F80007449088040E073480088142190FBF1F2E6
:103F900001FB1200C0BB00242FE004EB4401634A84
:103FA000126802EB8101887AFFF7BCFB054604EB3F
:103FB00044005E49096831F82000A84208DA04EBA1
:103FC00044005A49096821F82050002061490880BE
:103FD00004EB44005549096801EB80004088A84281
:103FE00009DD04EB44005149096801EB800045807C
:103FF000002058490880601CC4B2082CCDDB55480D
:104000000088401C534908805248008840F6B83167
:104010008842B8DB002434E004EB440043490968DB
:1040200031F8201004EB4400404A126802EB800093
:104030004088081A06B2142096FBF0F006B2002E53
:1040400000DA002604EB44003849096831F8200002
:10405000801B04EB4401354A126822F8210004EB6E
:1040600044003249096801EB80004088304481B245
:1040700004EB44002D4A126802EB80004180601C72
:10408000C4B2082CC8DBFFF7AFFC70BD70B588B0B8
:10409000002404E000204DF82400601CC4B2082C69
:1040A000F8DB002500202B49088023E02948008800
:1040B000142190FBF1F201FB1200D8B9002410E0AA
:1040C00004EB4401194A126802EB8101887AFFF778
:1040D00029FB06465DF8240030444DF82400601C9E
:1040E000C4B2082CECDB1B480088401C194908802E
:1040F000681CC5B217480088B0F57A7FD6DB05B9D1
:10410000012500240CE05DF82400B0FBF5F004EB81
:104110004401064A126802EB81018880601CC4B227
:10412000082CF0DBFFF760FC08B070BD68000020D1
:104130006C00002070000020740000207800002037
:104140007C000020800000208400002088000020E7
:104150000000FA438C00002008B54FF47070ADF8F1
:10416000000018208DF8030003208DF80200694636
:104170005248FDF781F901215148FDF74CFA08BD7D
:1041800010B501210220FCF7BAFA01211120FCF739
:10419000A9FA10BD10B5FFF7F3FFFFF7DDFF49489F
:1041A00000684949B0FBF1F0401E484908804FF4CF
:1041B0007A70474988804548008808800020C88078
:1041C00048804448FDF7FEFC6020434908800120F8
:1041D00048800020C88008813E48FDF730FD082156
:1041E0003C48FEF77BF93C493A48FDF76AFD082157
:1041F0003848FEF77CF901213648FEF73FF90121E6
:104200003448FEF73BF810BD2DE9F05F05460E4639
:104210001DB94FF47A74002619E02B4890FBF5F095
:1042200084B2022C00DA0224304603F005F98346FA
:104230002A4903F007F88146204603F0FDF882463C
:10424000494603F041F9804603F0BEF887B22146A3
:104250002048FEF7A9FA39461E48FEF7A7FABDE83E
:10426000F09F2DE9F05F05460E461DB94FF47A74B4
:10427000002619E0144890FBF5F084B2022C00DA15
:104280000224304603F0D8F88346144902F0DAFFDE
:104290008146204603F0D0F88246494603F014F9DF
:1042A000804603F091F887B221460A48FEF77CFA6F
:1042B00039460848FEF77CFABDE8F09F001001403F
:1042C000000C1A000000002040420F009600002061
:1042D00070030020000400407A0300200000C84260
:1042E00038B50446F84951F824000121FCF7FAF9E1
:1042F000F64830F81400ADF8000010208DF80300E7
:1043000003208DF80200F24951F824006946FDF7B8
:10431000B3F838BDED4931F81010ED4A52F82020BD
:1043200011617047E94931F81010E94A52F820202C
:1043300051617047E64951F82010C968E34A32F8E4
:1043400010205140E24A52F82020D16070477FB5DA
:1043500004460D46DF4951F8241041F001000121C7
:10436000FCF7C0F904208DF80F00DB4830F814008A
:10437000ADF80C00D94951F8240003A9FDF77CF8E9
:10438000012D2CD1D64A12F81410D64A12F8140076
:10439000FDF786F9D44830F81400019000208DF81C
:1043A00008001CB10C208DF8090002E008208DF8EF
:1043B000090001208DF80A0001A8FCF79FFCCB48FA
:1043C00010F814008DF800000F208DF801008DF812
:1043D000020001208DF803006846FCF7F0F97FBD6C
:1043E00010B50446BC4A32F81410BC4A52F82400F6
:1043F000FDF7D3F810BD38B504460D46BC4951F859
:104400002410BC4A52F82420114341F0010001213C
:10441000FCF768F934B9B84951F824000121FCF7D8
:1044200061F905E0B44951F824000121FCF767F96E
:1044300018208DF80300B14830F81400ADF80000E2
:1044400003208DF80200AE4951F824006946FDF7BB
:1044500013F804208DF80300AA4830F81400ADF8D2
:104460000000A94951F824006946FDF705F8A7495D
:1044700051F824002946FEF722FAA44951F82400F5
:104480000121FEF7A8FA38BD38B50446A04951F815
:1044900024000121FCF726F99E4830F81400ADF8FD
:1044A000000000208DF803009B4951F82400694664
:1044B000FCF7E2FF38BD08B50020FEF716FF00202C
:1044C000FEF716FFFEF7E6FE00214FF48060FCF7D2
:1044D000FCF84FF4F850ADF8000004208DF803000C
:1044E00069468E48FCF7C8FF0420ADF80000694615
:1044F0008B48FCF7C1FF08BD08B50121B020FCF7CF
:10450000F1F84FF4F850ADF8000003208DF80200E8
:1045100018208DF8030069468048FCF7ADFF0420A1
:10452000ADF8000069467E48FCF7A6FF4FF4006036
:10453000ADF8000048208DF8030069467948FCF783
:104540009BFF01218802FCF7C0F801210220FCF743
:10455000BCF808BD30B58BB005460C467248FEF776
:104560006AFC00217148FEF738FC71480090019503
:1045700010200290A0080390002004908020059055
:104580008000069080000790002008904FF40050B3
:10459000099000200A9069466448FEF7F3FB012168
:1045A0006248FEF71AFC0BB030BD30B58BB0054643
:1045B0000C465D48FEF73FFC00215C48FEF70DFC11
:1045C0005B480090019500200290A0080390002015
:1045D00004908020059080000690800007900020C5
:1045E00008904FF40050099000200A9069464F4807
:1045F000FEF7C8FB01214D48FEF7EFFB0BB030BDC5
:1046000010B54C48FEF704FC10BD08B500214A481F
:10461000FDF749F94848FDF77BF800214FF4805039
:10462000FCF760F82020ADF8000004208DF80300AE
:1046300069464248FCF720FF4020ADF8000069467B
:104640003E48FCF719FF8020ADF8000069463B4862
:10465000FCF712FF0420ADF8000069463848FCF76B
:104660000BFF08BD08B501210C20FCF73BF8012128
:104670000803FCF737F82020ADF8000003208DF880
:10468000020018208DF8030069462C48FCF7F4FE60
:104690008020ADF8000069462848FCF7EDFE402078
:1046A000ADF8000004208DF8030069462348FCF7AC
:1046B000E3FE0420ADF8000010208DF803006946E9
:1046C0001F48FCF7D9FE08BDB8760008B076000890
:1046D00098000020D8760008C8760008A8000020BE
:1046E0001877000808770008F8760008287700088F
:1046F00040770008487700083877000850770008AE
:10470000D000002054770008D8000020C800002006
:104710006877000858770008E0000020001001408A
:1047200000140140001C014000F00010440402404D
:10473000808001400020001000300140000801404E
:10474000000C014008B501210C20FBF7CBFF012133
:104750000803FBF7C7FF2020ADF8000003208DF809
:10476000020018208DF8030069465248FCF784FEC9
:104770008020ADF8000069464E48FCF77DFE4020E1
:10478000ADF8000004208DF8030069464948FCF7A5
:1047900073FE0420ADF8000010208DF80300694678
:1047A0004548FCF769FE0820ADF80000694642481C
:1047B000FCF762FE08BD10B504213F48FCF709FF75
:1047C00010BD10B504213C48FCF701FF10BD10B529
:1047D00008213948FCF7FDFE10BD10B50821364808
:1047E000FCF7F5FE10BD10B504213348FCF7F1FECF
:1047F00010BD10B504213048FCF7E9FE10BD10B51E
:1048000008212D48FCF7E5FE10BD10B508212A4807
:10481000FCF7DDFE10BD08B500212848FEF7CFFBF0
:104820002648FEF735FB00214FF40010FBF767FF29
:104830004020ADF8000004208DF8030069461E48B2
:10484000FCF71AFE8020ADF8000069461A48FCF714
:1048500013FE2020ADF8000069461748FCF70CFE57
:1048600008BD08B501214805FBF749FF01210820D3
:10487000FBF738FF4020ADF8000003208DF8020060
:104880001C208DF8030069460B48FCF7F5FD8020DD
:10489000ADF8000069460848FCF7EEFD2020ADF8B1
:1048A000000048208DF8030069460348FCF7E4FD4A
:1048B00008BD000000080140000C01400054004009
:1048C00010B58CB004461E230BAA03A9204600F0A5
:1048D0008DFD0190019810B101200CB010BD9DF824
:1048E0002C00044400200B900EE05D489DF82C2025
:1048F00050F8221003A800F0E1FC00B108E09DF898
:104900002C00401CC0B20B909DF82C000628ECDB5C
:1049100000BF9DF82C0006287ED2DFE800F00304DB
:10492000385A899F00BF4FA001F0E6FD4EA001F06C
:10493000E3FD5DA001F0E0FD6BA001F0DDFD7AA0DC
:1049400001F0DAFD88A001F0D7FD97A001F0D4FDB9
:10495000A3A001F0D1FDA9A001F0CEFDADA001F012
:10496000CBFDB2A001F0C8FDB6A001F0C5FDBBA013
:1049700001F0C2FDC0A001F0BFFDCCA001F0BCFD64
:10498000D7A001F0B9FDE3A001F0B6FD77E235A0B4
:1049900001F0B2FDEFA001F0AFFD00200B900EE0A2
:1049A000FC4800689DF82C2000EBC2004168FAA08A
:1049B00001F0A2FD9DF82C00401CC0B20B90F54800
:1049C000007D9DF82C108842EADC26A001F094FDC1
:1049D00055E224A001F090FDF1A001F08DFD002032
:1049E0000B901BE0EB4909689DF82C2001EBC201FC
:1049F00002AA486803A900F01EFDE64800689DF879
:104A00002C1050F8312003A9F5A001F075FD9DF898
:104A10002C00401CC0B200E02FE20B90DD48007D6E
:104A20009DF82C108842DDDC0EA001F065FD26E229
:104A30000CA001F061FD0BAA03A9204600F09AFD2D
:104A40009DF82C0040B901A903A800F06AFC0B9066
:104A50009DF82C0008B9CDE1DEE1D0E1E2E10000F3
:104A6000000100200D0A00002D2D2D2D2D2D2D2DA6
:104A70002D2D2D2D2D2D2D2D2D2D2D2D2D2D2D2D66
:104A800055534D4152542056322E342D2D2D2D2D5F
:104A90002D2D2D2D2D2D2D2D2D2D2D2D2D2D2D2D46
:104AA0002D2D2D200D0A00002020202055534D4192
:104AB0005254CAC7D3C9414C49454E54454BBFAA6D
:104AC000B7A2B5C4D2BBB8F6C1E9C7C9B5C4B4AEC4
:104AD000BFDAB5F7CAD4BBA5BDBBD7E9BCFE2CCDA8
:104AE000A8B9FD200D0A0000CBFC2CC4E3BFC9D23D
:104AF000D4CDA8B9FDB4AEBFDAD6FACAD6B5F7D3CD
:104B0000C3B3CCD0F2C0EFC3E6B5C4C8CEBACEBAF8
:104B1000AFCAFD2CB2A2D6B4D0D02ED2F2B4CB2CD8
:104B2000C4E3BFC90D0A0000D2D4CBE6D2E2B8FC80
:104B3000B8C4BAAFCAFDB5C4CAE4C8EBB2CECAFDA8
:104B400028D6A7B3D6CAFDD7D62831302F3136BDE7
:104B5000F8D6C629A1A2D7D6B7FBB4AEA1A2BAAFE8
:104B6000CAFDC8EB0D0A0000BFDAB5D8D6B7B5C884
:104B7000D7F7CEAAB2CECAFD292CB5A5B8F6BAAFE2
:104B8000CAFDD7EEB6E0D6A7B3D63130B8F6CAE440
:104B9000C8EBB2CECAFD2CB2A2D6A7B3D6BAAFCA62
:104BA000FDB7B5200D0A0000BBD8D6B5CFD4CABE1C
:104BB0002ED0C2D4F6B2CECAFDCFD4CABEBDF8D66E
:104BC000C6C9E8D6C3B9A6C4DC2CD0C2D4F6BDF899
:104BD000D6C6D7AABBBBB9A6C4DC2E0D0A000000FE
:104BE000BCBCCAF5D6A7B3D63A7777772E6F706577
:104BF0006E6564762E636F6D0D0A000055534D414E
:104C00005254D3D036B8F6CFB5CDB3C3FCC1EE3ACB
:104C10000D0A00003F3A20202020BBF1C8A1B0EFD0
:104C2000D6FAD0C5CFA20D0A0000000068656C70EE
:104C30003A20BBF1C8A1B0EFD6FAD0C5CFA20D0A79
:104C4000000000006C6973743A20BFC9D3C3B5C4B7
:104C5000BAAFCAFDC1D0B1ED0D0A0A0069643A20AD
:104C60002020BFC9D3C3BAAFCAFDB5C44944C1D01F
:104C7000B1ED0D0A0A0000006865783A2020B2CE36
:104C8000CAFD3136BDF8D6C6CFD4CABE2CBAF3B8E9
:104C9000FABFD5B8F12BCAFDD7D6BCB4D6B4D0D0A4
:104CA000BDF8D6C6D7AABBBB0D0A0A006465633A35
:104CB0002020B2CECAFD3130BDF8D6C6CFD4CABE90
:104CC0002CBAF3B8FABFD5B8F12BCAFDD7D6BCB40D
:104CD000D6B4D0D0BDF8D6C6D7AABBBB0D0A0A0041
:104CE000C7EBB0B4D5D5B3CCD0F2B1E0D0B4B8F105
:104CF000CABDCAE4C8EBBAAFCAFDC3FBBCB0B2CEF2
:104D0000CAFDB2A2D2D4BBD8B3B5BCFCBDE1CAF8CF
:104D10002E0D0A002D2D2D2D2D2D2D2D2D2D2D2D32
:104D20002D2D2D2D2D2D2D2D2D2D2D2D2D2D414C80
:104D300049454E54454B2D2D2D2D2D2D2D2D2D2DF1
:104D40002D2D2D2D2D2D2D2D2D2D2D2D2D2D2D20A0
:104D50000D0A00002D2D2D2D2D2D2D2D2D2D2D2D20
:104D60002D2D2D2D2D2D2D2D2D2D2D2D2DBAAFCAC7
:104D7000FDC7E5B5A52D2D2D2D2D2D2D2D2D2D2D41
:104D80002D2D2D2D2D2D2D2D2D2D2D2D2D2D2D2D53
:104D9000200D0A002C01002025730D0A00000000E0
:104DA0002D2D2D2D2D2D2D2D2D2D2D2D2D2D2D2D33
:104DB0002D2D2D2D2D2D2D2D2DBAAFCAFD20494481
:104DC000202D2D2D2D2D2D2D2D2D2D2D2D2D2D2D20
:104DD0002D2D2D2D2D2D2D2D2D2D2D2D200D0A0080
:104DE00025732069642069733A0D0A3058253038DC
:104DF000580D0A00F8A0019901F07EFB0EE09DF825
:104E00002C00042801D0022067E5F6A001F074FB15
:104E10000120F949C87501E002205EE5F0A001F02B
:104E20006BFB2CE0EEA001F067FB0BAA03A9204668
:104E300000F0A0FB9DF82C00C8B901A903A800F060
:104E400070FA0B909DF82C0020B9ECA0019901F0AC
:104E500053FB0EE09DF82C00042801D002203CE515
:104E6000E9A001F049FB0020E349C87501E00220F8
:104E700033E5DBA001F040FB01E001202DE500BFA0
:104E800000202AE50120DC49C875704730B593B091
:104E9000054611AA08A9284600F0CDFA044614B127
:104EA000204613B030BD0020129025E0D249096899
:104EB0009DF8482001EBC20110AA4868694600F03D
:104EC000BAFA04460CB12046EBE708A9684600F0A0
:104ED000F5F960B19DF840009DF84410884201DD6D
:104EE0000220DEE79DF84800C34988750AE09DF876
:104EF0004800401CC0B21290BF48007D9DF8481089
:104F00008842D3DC00BFBC48007D9DF84810884231
:104F100001D10420C5E712A9284600F096FB0446FB
:104F20000CB12046BDE79DF84800B3494875002004
:104F3000B7E7F0B599B0B048847D007DA04201DCB0
:104F400019B0F0BDAC49096801EBC40106AA486874
:104F500007A900F070FA07A9B0A001F0CDFA002669
:104F600044E0A548018B0120B04001421BD0222122
:104F7000ACA001F0C1FA304600F05AFB9E49243142
:104F800047183946A8A001F0B7FA2221A5A001F0E0
:104F9000B3FA304600F04CFB9749243108440FA97E
:104FA00041F8260018E0304600F042FB92492431D7
:104FB00008580FA941F826008F48C07D30B90FA8C6
:104FC00050F8261099A001F097FA05E00FA850F8C4
:104FD000261097A001F090FA9DF81800401EB042EC
:104FE00002D095A001F088FA701CC6B29DF8180096
:104FF0008642B6DB91A001F07FFA7F48407D0B2806
:105000000DD2DFE800F0060D151E27323F4E5F720D
:1050100087007949096851F834008047054690E0D7
:10502000754A126852F834100F988847054688E090
:10503000714B1B6853F83420DDE90F01904705469A
:105040007FE06D4F3F6857F834300FA807C8984786
:10505000054676E0DFF8A0C1DCF800C05CF83470EB
:105060000FA80FC8B84705466BE01398DFF888C152
:105070000090DCF800C05CF834700FA80FC8B84787
:1050800005465EE0DDE91301DFF86CC1CDE9000102
:10509000DCF800C05CF834700FA80FC8B8470546AC
:1050A0004FE0DDE913121598DFF84CC1CDE900128D
:1050B0000290DCF800C05CF834700FA80FC8B84745
:1050C00005463EE0DDE91323DDE91510DFF828C1D0
:1050D000CDE90023CDE90210DCF800C05CF83470A3
:1050E0000FA80FC8B84705462BE0DDE91423DDE91A
:1050F0001610CDE90123CDE903101398DFF8F8C0AD
:105100000090DCF800C05CF834700FA80FC8B847F6
:10511000054616E0DDE9163215991898CDE90332F7
:1051200002910590DDE91301DFF8CCC0CDE9000163
:10513000DCF800C05CF834700FA80FC8B84705460B
:1051400000BF00BF2C48C07D20B929463CA001F01B
:10515000D3F903E029463CA001F0CEF900BFEFE609
:1051600070B53B48008810F4004F33D038480578BC
:105170000020384948552048816836488847044609
:105180001CB91D49C868804721E03248FFF798FBE9
:105190000546012D00D02C46CCB1012C06D0022CA6
:1051A00008D0032C0AD0042C10D10BE02AA001F067
:1051B000A3F90BE02BA001F09FF907E02CA001F070
:1051C0009BF903E02DA001F097F900BF00BF00207C
:1051D0001F49088070BD00004845583A305825588E
:1051E0000D0A00003136BDF8D6C6B2CECAFDCFD406
:1051F000CABE210D0A0000002C0100204445433A9C
:10520000256C750D0A0000003130BDF8D6C6B2CE4F
:10521000CAFDCFD4CABE210D0A0000000D0A2573B5
:10522000280000002563000025730000256C750030
:1052300030582558000000002C0000002900000014
:105240003D256C753B0D0A003D3058255800000087
:105250002C0000202C020020BAAFCAFDB4EDCEF322
:10526000210D0A00B2CECAFDB4EDCEF3210D0A0025
:10527000B2CECAFDCCABB6E0210D0A00CEB4D5D279
:10528000B5BDC6A5C5E4B5C4BAAFCAFD210D0A00B7
:1052900008480078401C07490870704710B5054859
:1052A0000078052805DB00200249087002490869DA
:1052B000804710BD180100202C01002002460AE0A2
:1052C00010780B78984201D000207047107800B910
:1052D00002E0521C491CF3E700BF0120F5E706E09D
:1052E00002780A70027802B902E0401C491CF7E714
:1052F00000BF70470146002005E00A7802B903E0CC
:10530000421CD0B2491CF8E700BF704710B50246F6
:10531000012000E050430B00A1F10104E1B2F9D1FA
:1053200010BD2DE9F04307460E4600254FF00A0850
:105330003C46002030601FE02078392802DC2078CD
:1053400030280ADA2078462802DC2078412804DA5E
:105350002078582809D1012D07D12078412801DB78
:105360004FF01008681CC5B205E0207800B904E0D1
:105370000120BDE8F083641CDEE700BF3C46B8F1C5
:10538000100F0FD1032D01DA0220F2E72078302828
:1053900006D16078582803D1A41CA81EC5B204E029
:1053A0000320E6E70DB90420E3E71BE00DB1681E1A
:1053B000C5B22078392806DC2078302803DB207835
:1053C000A0F1300902E02078A0F1370929464046D3
:1053D000FFF79CFF316809FB00103060641C2078E7
:1053E00000B900E0E2E700BF0020C2E710B50446C4
:1053F000002010700BE020780870641C491C1078A5
:10540000401C10701078984201DB012010BD2078FC
:10541000202802D020780028EDD10020087000BF9D
:10542000F4E7014600E0491C0878202801D1002952
:10543000F9D1087870472DE9F74F85B081460F46BE
:105440000025002004908346012003904FF00008BF
:10545000002000904C4682460FE0641C0AF10100D7
:1054600000F0FF0A2078202807D12046FFF7D9FF57
:105470000646282E01D0CDF810A020782828ECD19F
:105480004C46049810B10498401C04444FF0000AA4
:10549000002656E0207810B94FF0010A52E020783B
:1054A000282803D116B9681CC5B213E02078292832
:1054B00008D13EB915B1681EC5B201E04FF0010A2E
:1054C00045B93FE02078222804D10EB9012000E040
:1054D0000020064635B92078202831D02078387051
:1054E0007F1C2DE020782C2806D101200390009805
:1054F000401CC0B2009016E02078202813D02078FD
:10550000282810D0009850B9B8F1050F07DA207894
:1055100001A901F8080008F1010000F0FF08039854
:10552000401CC0B20390012D0AD10398022807D174
:105530000398401CC0B203900BF1010000F0FF0B78
:10554000641CA7E700BFBBF1010F0AD1002001A92D
:1055500001F808007EA101A8FFF7B0FE08B14FF0E6
:10556000000B079880F800B000203870504608B053
:10557000BDE8F08FF0B50346154600200022002656
:1055800000244FE01F782C2F01D104B901221F788D
:10559000292F01D01F780FB904B944E0002E34D16F
:1055A0001F78302F02DB1F78392F11DD1F78612F14
:1055B00002DB1F78662F0BDD1F78412F02DB1F787F
:1055C000462F05DD1F78582F02D01F78782F0CD179
:1055D00002B128E01F78612F03DB1F78203F0F7096
:1055E00001E01F780F70491C19E01F78222F04D1A9
:1055F00002B118E00126012411E01F78202F0ED0FF
:105600001F782C2F0BD0FF260DE01F78222F00D102
:10561000002402B107E014B11F780F70491C471C29
:10562000F8B25B1CAEE700BF00270F702E70F0BD14
:1056300002460020002105E0474B5B5C0344D8B2E2
:105640004B1CD9B29142F7DB70472DE9F043B5B05E
:1056500005460F460024002604E000213E488155FF
:10566000701CC6B20A2EF8DB06E06D1C287818B94B
:10567000012035B0BDE8F08328782828F5D16D1CCD
:1056800061E034AA69462846FFF774FF06463544B0
:105690009DF8D00020B1012827D0FF284CD149E047
:1056A0009DF8000000B333A96846FFF73AFE0646AE
:1056B0000EB10220DDE72046FFF7BAFF26490A3186
:1056C000339A0A50A1F12400008B0121A1408843A4
:1056D00021491A39088304211F480155601CC4B2AE
:1056E0000A2C01DD0320C4E726E06846FFF702FE2E
:1056F000401C00F0FF082046FFF79AFF16490A31C8
:1057000000EB010949466846FFF7E9FD12481A38DF
:10571000018B0120A040014388B20F491A39088348
:105720000D4800F80480601CC4B20A2C01DD03207F
:105730009FE701E002209CE700BF2878292801D0DC
:10574000287800B900E09CE700BF3C70002090E79B
:10575000766F69640000000046010020F8B5064637
:105760004CF2503000F028FDD6F8F80380470021B5
:10577000304600F0B9FD00240BE0FE4800EB440089
:105780004278FC4810F81410304600F01BFD601CF5
:10579000C4B2082CF1DB1D21304600F03DFD04466B
:1057A00024B973225021304600F02AFD08240BE072
:1057B000F04800EB44004278EE4810F814103046F0
:1057C00000F000FD601CC4B20A2CF1DB80213046E1
:1057D00000F08AFD002415E0002509E0E64850F8B5
:1057E0002400E900C840C0B20DF80500681CC5B22D
:1057F000042DF3DB04236A462146304600F0EFFC1B
:10580000601CC4B2082CE7DD092417E000250BE07A
:10581000D94850F82400C5F10301C900C840C0B2FE
:105820000DF80500681CC5B2042DF1DB04236A469F
:105830002146304600F0D3FC601CC4B20D2CE5DDDF
:105840000B23CE4A0E21304600F0C9FC002508E0AB
:10585000C9480069E900C840C0B20DF80500681CDD
:10586000C5B2042DF4DB9DF8000040F006008DF871
:10587000000004236A461946304600F0B0FC9DF84B
:10588000000000F0F9008DF8000004236A46194674
:10589000304600F0A4FC0021304600F025FD42F225
:1058A000107000F089FC052306F112021021304629
:1058B00000F095FC052306F112020A21304600F0A3
:1058C0008EFCF8BD10B5AE48AE49086000F58060AA
:1058D000AD490860AD48AB490968C1F8F803AC4868
:1058E000A8490968C1F8FC03AA48A6490968C1F893
:1058F000F003A948A3490968C1F8F403A748A249DD
:105900000968C1F8F803A6489F490968C1F8FC0373
:10591000A4489D490968C1F8F003A3489A49096859
:10592000C1F8F40397480068007820F00100954919
:105930000968087093480068007820F002009149D7
:105940000968087000218F480068A0F884110521BB
:105950008C48006880F889118B480068007820F036
:10596000010089490968087087480068007820F0BC
:105970000200854909680870002183480068A0F882
:10598000841105218048006880F889117D480068ED
:10599000123000F008FC81217A48006881750024EB
:1059A00007E08248015D7848006812300155601CAC
:1059B000C4B2052CF5DB73480068FFF7CFFE7248D0
:1059C0000068FFF7CBFE10BD0146487B401CC2B209
:1059D0004A73102A01DB00224A73487B744A105C28
:1059E00070472DE9F04104462646A51C04F117072F
:1059F0004FF000082878297A884257DB0020287069
:105A0000052028723220A8720721204600F004FCED
:105A100010F0200F0FD04FF0010800202871787887
:105A200010F0800F07D0032184F88911307820F01E
:105A30000100401C3070204600F036FC204600F08B
:105A400020FC204600F028FC2879A97A884203DA55
:105A5000E888B0F5B47F0BDB00202871E880204691
:105A6000FFF7B2FF28732A7B0521204600F0AAFB2E
:105A7000B8F1000F06D194F88901022824D094F8D7
:105A8000BB0208BB204600F041FC80B1204600F07C
:105A90000BFC202304F11702A021204600F0C6FBD6
:105AA000204600F011FC022184F889112AE02046EA
:105AB00000F0FAFB204600F0E4FB204600F0ECFB8F
:105AC000052184F889111DE094F8890102280DD17F
:105AD000204600F0E9FB202304F11702A021204614
